:020000020000FC
:1000000010C0189518951895189518951895189565
:100010001895189518951895189518951895189578
:100020001895FF27EE2700272227332710EDF0E051
:10003000EEE52EED0491011738F0301740F0E3950E
:10004000EE3DC1F70C942C00102F0C941F00302FA4
:100050000C941F000C942A0000000C942C002155D5
:1000600086D7D3164A291CB9A746F3A2B9898519A0
:10007000D5122F9F4886054C26F63496D5CA319561
:10008000A7D4233B2D19A332C114EE06FD4940C06D
:0E0090001006FA047FE50371204DAE0F480DF7
:00000001FF
